:020000040800F2
:100000000000102411110008251000082710000816
:10001000291000082B1000082D1000080000000017
:10002000000000000000000000000000F18D00084A
:100030002F10000800000000818E000815870008BE
:1000400061110008611100086111000861110008C8
:1000500061110008611100086111000861110008B8
:1000600061110008611100086111000861110008A8
:100070006111000861110008611100086111000898
:100080006111000861110008611100086111000888
:100090006111000861110008611100086111000878
:1000A0006111000861110008611100086111000868
:1000B0006111000861110008611100086111000858
:1000C0006111000861110008611100086111000848
:1000D0006111000861110008611100086111000838
:1000E0006111000861110008611100086111000828
:1000F0006111000861110008611100086111000818
:100100006111000861110008611100086111000807
:100110006111000861110008311000086111000828
:1001200061110008611100086111000861110008E7
:1001300061110008000000000000000061110008CB
:1001400061110008611100086111000861110008C7
:1001500061110008611100086111000861110008B7
:1001600061110008611100086111000861110008A7
:100170006111000861110008611100086111000897
:100180006111000861110008611100086111000887
:100190006111000861110008611100086111000877
:1001A0003D100008611100084910000861110008A5
:1001B0005510000861110008611100086111000864
:1001C000611100086111000800000000000000003B
:1001D00000000000000000006111000800000000A5
:1001E000000000000000000000000000000000000F
:1001F000000000000000000061110008611100080B
:100200006111000861110008000000006111000880
:1002100061110008611100086111000861110008F6
:100220006111000861110008611100080000000060
:100230006111000861110008000000006111000850
:1002400061110008611100086111000861110008C6
:1002500061110008611100086111000861110008B6
:1002600061110008611100086111000861110008A6
:100270006111000861110008611100080000000010
:100280006111000861110008000000006111000800
:1002900000000000611100086111000861110008F0
:0C02A000611100086111000861110008E4
:1002B00010B5054C237833B9044B13B10448AFF3A0
:1002C00000800123237010BD2801002400000000DD
:1002D00004DC010808B5034B1BB103490348AFF325
:1002E000008008BD000000002C01002404DC01088F
:1002F00001F0FF01102A2BDB10F0070F08D010F8D7
:10030000013B013A8B422DD010F0070F42B3F6D1DA
:10031000F0B441EA012141EA014122F007047FF0F3
:1003200000070023F0E80256083C85EA010586EA4A
:10033000010685FA47F5A3FA87F586FA47F6A5FA86
:1003400087F68EB9EED1F0BC01F0FF0102F0070292
:1003500032B110F8013B013A83EA010313B1F8D13D
:100360000020704701387047002D06BF354603381E
:10037000073815F0010F07D1013015F4807F02BF57
:10038000013015F4C03F0130F0BC0138704700BFA8
:100390000149002009F084BEE515000808B5642075
:1003A00008F039FAFBE7000000B59DB04C220021AF
:1003B00009A81CF002FE2022002101A81CF0FDFD6E
:1003C000042006F069FC00230093264B9A6942F44E
:1003D00040429A619A6902F440420092009A9A69F6
:1003E0009204FCD5204A01210C204FF0040C936AA2
:1003F00023F0030343F0020393624FF480334FF47E
:100400008C72CDE909130223CDE91233CDE91633FD
:1004100018930023CDE9140209A81B93CDE919C351
:1004200006F076FC08B172B6FEE73F2203230721EF
:10043000CDE9012340234FF48062CDE9030001A8F8
:10044000CDE90533CDE9072306F0DAFF08B172B62E
:10045000FEE74FF480224FF4000106F0E1FE1DB0EC
:100460005DF804FB004802580044025880B59CB077
:100470001022002101260FA800241CF09EFD1C273D
:1004800004F000FA4FF01050BB4B0325ADF83C6070
:10049000CDE910034FF001130FA8129304F010FAE6
:1004A0004FF010430FA88DF8474010938DF84A4045
:1004B0008DF83D608DF8447004F002FA02230FA815
:1004C0008DF847508DF83D3019238DF84A608DF82E
:1004D000443004F0F5F94FF050430FA88DF8474031
:1004E00010938DF84A4004248DF83D508DF84470E7
:1004F00004F0E6F918230FA88DF83D408DF844303C
:1005000040F201138DF84750ADF84A3004F0D8F9A5
:10051000204604F0C5F9994B5A6912F4003211D102
:10052000BFF34F8FBFF36F8FC3F85022BFF34F8FCE
:10053000BFF36F8F5A6942F400325A61BFF34F8F95
:10054000BFF36F8F8D4A536913F4803323D1C2F800
:100550008430BFF34F8FD2F8803043F6E074C3F39A
:10056000C900C3F34E335B0103EA0406014646EAC1
:1005700081750139C2F86052F9D2203B13F1200F86
:10058000F2D1BFF34F8F536943F480335361BFF30C
:100590004F8FBFF36F8F04F0BFF80024FFF704FF05
:1005A000142200210FA81CF008FD754B4FF4405198
:1005B0007448D3F8402101264FF00308022742F483
:1005C0008072C3F84021D3F8402102F48072049273
:1005D000049AD3F8402142F04002C3F84021D3F8F6
:1005E000402102F040020592059AD3F8402142F4DE
:1005F0008062C3F84021D3F8402102F48062069261
:10060000069AD3F8402142F00802C3F84021D3F8FB
:10061000402102F008020792079AD3F8402142F0E5
:100620001002C3F84021D3F8402102F010020892D2
:10063000089AD3F8402142F40072C3F84021D3F85D
:10064000402102F400720992099AD3F8402142F045
:100650008002C3F84021D3F8402102F080020A92C0
:100660000A9AD3F8402142F02002C3F84021D3F87F
:10067000402102F020020B920B9AD3F8402142F065
:100680000102C3F84021D3F8402102F001020C928C
:100690000C9AD3F8402142F00402C3F84021D3F869
:1006A000402102F004020D920D9AD3F8402142F04D
:1006B0000202C3F840210022D3F8403103F00203C4
:1006C0000E930E9B04F014FE002216212E4804F017
:1006D0000FFE00224FF400412C4804F009FE4FF4B5
:1006E00040530FA92748CDE90F36CDE9114804F052
:1006F0006FFC4FF480730FA923481394CDE90F3793
:10070000CDE9114404F064FC10230FA91E48CDE983
:100710000F36CDE9114804F05BFC4FF400430FA9FC
:100720001A48CDE90F36CDE9114804F051FC0623F3
:1007300015480FA9CDE90F36CDE9114404F048FC66
:100740001348144B848003600662C0E9054404F03A
:10075000E3F808B172B6FEE70F4B4FF440320F4991
:10076000C3E902701846C3E9001204F067FB0546AE
:10077000B0B172B6FEE700BF1300000300ED00E069
:1007800000440258001802580000025800040258A1
:100790004C0100240030024070010024001000527F
:1007A000342201460FA8714C1CF007FC704B4FF02F
:1007B0002D0C4FF0180940F24F3E40F2214A2046DE
:1007C000A586256184F83650C4E900351623C4E9AE
:1007D00005C32F23C4E907394FF4FC73C4E909E3C7
:1007E00040F20E23C4E90255C4E90BA305F0D0F989
:1007F000024608B172B6FEE74FF448710F904FF40D
:1008000080654FF4F073ADF86C201A938DF86E206C
:10081000CDE91010FF20CDE914020520CDE9182103
:10082000CDE916500FA92046CDE9123705F07BFA25
:10083000054608B172B6FEE74A4601460FA84D4C80
:100840001CF0BBFB4FF004094B4B4FF0200A204635
:10085000A560E563C4E900394FF08073C4E9033A49
:100860004FF08053C4E90B350823C4E90575C4E98A
:100870000755C4E90985C4E90D3505F085FC08B1C3
:1008800072B6FEE74FF0011341F288320FA92046FD
:10089000129303F57F0311961393CDE90F6605F0CC
:1008A00071FF08B172B6FEE7204605F0E1FC044690
:1008B00008B172B6FEE703F0D3F940F2011303A9C1
:1008C0002046ADF80C3003F0ADFA08B172B6FEE781
:1008D00003F08EF908B172B6FEE7284B4021284A92
:1008E000C3F810A00F97C3E900264FF4C072C3E904
:1008F0000700C3E905124FF480504FF480420FA95E
:10090000C3E9090207221846C3E90269CDE91029A3
:10091000CDE91228CDE9147707F06AFC08B172B668
:10092000FEE7164807F08CFC044608B172B6FEE7F5
:1009300003F0ECFB204603F0B1FD08B172B6FEE710
:10094000019000F00EFC07F0F3FE0E4A01990E48EC
:1009500007F01AFF0D4B0E4A186001990D4807F079
:1009600013FF0D4B186007F0F5FEFEE7D8010024D9
:10097000001000508002002400500052DC020024CD
:10098000404100529CDC01089D03000848010024FE
:1009900078DC010867110008440100240268034B59
:1009A0009A4201D103F0E6BE704700BF001000403C
:1009B00072B6FEE70A4B82B00F216FF00100D3F848
:1009C000542142F00202C3F854210022D3F85431DA
:1009D00003F002030193019B02B003F001BF00BFCB
:1009E00000440258026882B0084B9A420CD1084B6E
:1009F000D3F8382142F40072C3F83821D3F83831E3
:100A000003F400730193019B02B070470030024071
:100A1000004402580F4B07B502689A4217D10E4B9B
:100A200009215A20D3F8342142F01002C3F83421AE
:100A30000022D3F8343103F010030193019B03F03B
:100A4000CFFE5A2003B05DF804EB03F0FBBE03B009
:100A50005DF804FB0010005200440258F0B5142267
:100A6000B9B0044600210DEB02001CF0A6FAB82232
:100A700000210AA81CF0A1FA2268414B9A427DD1BC
:100A80004FF0005318210AA80A934FF49073CDE950
:100A900013130223CDE91533092317934FF4007381
:100AA000199306F021FF08B1FFF782FF354B0225AD
:100AB00000240E26D3F84421032705A9324842F02A
:100AC0000802C3F84421D3F8442102F0080201923D
:100AD000019AD3F8402142F48062C3F84021D3F850
:100AE000402102F480620292029AD3F8402142F43B
:100AF0000072C3F84021D3F8402102F4007203923F
:100B0000039AD3F8402142F48072C3F84021D3F80D
:100B10004031099603F480730493049BFF23CDE9CD
:100B20000747CDE9053504F053FA48F67C6305A97B
:100B300016480996CDE90535CDE9074704F048FA8E
:100B40004FF4E04305A912480996CDE90535CDE9F2
:100B5000074704F03DFA4FF4004305A90C480996F5
:100B6000CDE90535CDE9074504F032FA5820224693
:100B7000092103F035FE582003F064FE39B0F0BDC2
:100B80000010005000440258002802580024025867
:100B9000002002582DE9F043BDB004461422002184
:100BA00009A81CF00AFAB82200210EA81CF005FAC8
:100BB0002268654B9A4240F0C3804FF000730EA844
:100BC0000E9306F091FE08B1FFF7F2FE5F4B002492
:100BD00002260325D3F834214FF009080A2709A972
:100BE00042F400125A484FF04009C3F83421D3F8B8
:100BF000342102F400120192019AD3F8342142F414
:100C00008042C3F83421D3F8342102F480420292A6
:100C1000029AD3F8402142F04002C3F84021D3F8B1
:100C2000402102F040020392039AD3F8402142F09F
:100C30000802C3F84021D3F8402102F008020492D0
:100C4000049AD3F8402142F02002C3F84021D3F89F
:100C5000402102F020020592059AD3F8402142F08B
:100C60000402C3F84021D3F8402102F004020692A6
:100C7000069AD3F8402142F08002C3F84021D3F80D
:100C8000402102F080020792079AD3F8402142F0F7
:100C90000202C3F84021D3F84031CDF8348003F08C
:100CA00002030893089B4FF48043CDE90B45CDE93F
:100CB000093604F08DF909A926480D97CDE9099662
:100CC000CDE90B4504F084F909A921480D97CDE938
:100CD0000996CDE90B4504F07BF94FF4707309A92F
:100CE0001D480D97CDE90936CDE90B4504F070F9A3
:100CF000222309A919480D97CDE90936CDE90B45FD
:100D000004F066F9082309A91548CDF83480CDE927
:100D10000936CDE90B4504F05BF9042309A9114814
:100D2000CDF83480CDE90936CDE90B4504F050F912
:100D30005C202246062103F053FD5C2003F082FD77
:100D40003DB0BDE8F08300BF00500052004402589F
:100D500000180258000C02580014025800080258EB
:100D6000001C025800040258026808B5174B9A424A
:100D70002BD1174B44F240011648D3F8342122F40A
:100D80000012C3F83421D3F8342122F48042C3F88E
:100D9000342104F007FA40210F4804F003FA4FF41D
:100DA00070710E4804F0FEF922210D4804F0FAF9A2
:100DB00008210C4804F0F6F90B48042104F0F2F97C
:100DC0005C20BDE8084003F04BBD08BD0050005258
:100DD0000044025800180258000C0258001402582F
:100DE00000080258001C025800040258F0B5B5B0C3
:100DF0000021142201A81CF0E0F8394B19680029E1
:100E00006BD1012207A81A60B4221CF0D6F84FF06B
:100E1000807306A8069306F067FD08B1FFF7C8FDCA
:100E2000304B022700260325D3F834210C2401A9D6
:100E30002D4842F48052C3F83421D3F8343105945C
:100E400003F480530093009B40F2FF63CDE90365F8
:100E5000CDE9013704F0BCF848F2331301A9234867
:100E60000594CDE90137CDE9036504F0B1F84CF202
:100E7000037301A91E480594CDE90137CDE9036547
:100E800004F0A6F84FF6837301A91A480594CDE93A
:100E90000137CDE9036504F09BF84FF6C07301A953
:100EA00015480594CDE90137CDE9036504F090F8C4
:100EB0004FF63F0301A911480594CDE90137CDE96B
:100EC000036504F085F8802301A90D480594CDE958
:100ED0000137CDE9036504F07BF835B0F0BD00BF04
:100EE000140300240044025800200258001802583D
:100EF000000C025800100258001C0258001402583E
:100F00000000025808B5184B1A6862BB012240F273
:100F1000FF6116481A60164AD2F8343123F4805320
:100F2000C2F8343104F03EF948F23311114804F0AC
:100F300039F94CF20371104804F034F94FF683711B
:100F40000E4804F02FF94FF6C0710D4804F02AF94D
:100F50004FF63F010B4804F025F980210A48BDE80F
:100F6000084004F01FB908BD1003002400200258F7
:100F70000044025800180258000C02580010025891
:100F8000001C025800140258000002580F2810B527
:100F900004468AB002D901200AB010BD01460022E1
:100FA000362003F01DFC362003F04CFC184B69463C
:100FB00002A81C60174BD3F8482142F01002C3F876
:100FC0004821D3F8483103F010030193019B06F048
:100FD00071FB079BC3B906F05BFB0F4C0F4B236003
:100FE00040F2E733E3600E4BB0FBF3F0013800232F
:100FF000606020462361A36007F0C0FA0028CAD1D0
:10100000204607F063F9C7E706F042FB4000E4E73B
:101010004800002400440258180300240010004037
:1010200040420F00FEE7FEE7FEE7FEE7FEE77047FF
:10103000014807F08DB900BF18030024014804F0EF
:1010400015BE00BFD8010024014803F036BF00BF21
:1010500070010024014805F0A9BA00BF80020024F5
:101060000120704708B51CF04BF8162303604FF0C1
:10107000FF3008BD08B51CF043F816230360FEE7F7
:1010800070B50D4614460E46731B9C4201DC20468B
:1010900070BDAFF3008006F8010BF5E770B50D46A3
:1010A00014460E46731B9C4201DC204670BD16F8A8
:1010B000010BAFF30080F5E74FF0FF3070474FF4BE
:1010C000005300204B60704701207047002070479C
:1010D0000B4A0346116810B509B90A491160106836
:1010E00009490A4C0344091B8B4206D91CF008F835
:1010F0000C2303604FF0FF3010BD1360FCE700BF0E
:101100006403002440B400240000102400100000F8
:10111000DFF834D003F0AAFA002103E00B4B5B5850
:10112000435004310A480B4B42189A42F6D30A4AFC
:1011300002E0002342F8043B084B9A42F9D31BF02B
:10114000E5FFFFF793F970470000102478F30108DA
:1011500000000024280100242801002440B40024B9
:10116000FEE700F0D9BC00F047BD40687047416021
:10117000704700004FF0E022D2F8FC3D43F080734E
:10118000C2F8FC3D054B064AD3F8B01F0A43C3F82A
:10119000B02F1A6842F001021A607047001000E098
:1011A00055CEACC5511A01EB5301B1FBF3F07047BA
:1011B000014B5868704700BF001000E0704710B541
:1011C00004460C211BF0C5FC204610BD036810B579
:1011D0001B69044631B19847A26863689B1A18449A
:1011E000606010BD9847A060FBE770471FB50423FF
:1011F00000204FF448726946CDE902304FF4F07395
:10120000CDE9002303F04EF905B05DF804FB30B5DD
:1012100085B000200D46144601A90390CDE90100D8
:1012200003F0C2F9019820B1029B01202B60039BBF
:10123000236005B030BD10B5044604211BF089FCC5
:10124000204610BD032826D8DFE800F0020B141D4D
:10125000114B102111481A68B2FA82F2520904F0B7
:1012600047B80D4B4FF400515A68B2FA82F2520956
:101270000B48F4E7084B4FF400410A489A68B2FA69
:1012800082F25209EBE7044B4FF48051DA68B2FA6C
:1012900082F25209ECE7704768030024000002580C
:1012A0000018025800040258032826D8DFE800F08E
:1012B000020B141D114B102111481A68003A18BF77
:1012C000012204F015B80D4B4FF400515A68003A52
:1012D00018BF01220B48F4E7084B4FF400410A48BD
:1012E0009A68003A18BF0122EBE7044B4FF4805193
:1012F000DA68003A18BF0122ECE77047680300245F
:10130000000002580018025800040258032812D89E
:10131000DFE800F002060A0E1021074803F0EDBFD7
:101320004FF400510548F9E74FF400410448F5E750
:101330004FF48051F6E77047000002580018025839
:101340000004025808B5032816D8DFE800F0020AA6
:101350000E121021094803F0C5FF431E58425841A0
:1013600008BD4FF400510648F5E74FF40041054829
:10137000F1E74FF48051F6E70020EEE70000025855
:10138000001802580004025870B5084D00240126C8
:10139000E0B2FFF7D7FF18B12B68012B18BF2E6002
:1013A00001340435052CF3D170BD00BF680300245F
:1013B000012380F8741080F8753070470020704762
:1013C00041640039024B18BF01211970704700BFFA
:1013D0005FB0002400207047836B0BB108461847AC
:1013E00070474FF6FF707047406803689B69184765
:1013F0007047000038B5044600F0A6FC0A4A4FF0DA
:10140000504123682046D3F88850084BA84704F180
:101410007C05FFF7B9FF2846FFF7ACFE01232561E5
:1014200084F86C3038BD00BF00000CD0000018D02C
:1014300008B503680446D3F88030984723682046EF
:101440009B6F984700F026F9236820461B6F98474A
:1014500001220421074803F04BFF01220221054825
:1014600003F046FF00F016F9236820461B6F9847EB
:10147000F8E700BF0000025810B504460AF0D0FAA1
:1014800023682046D3F8AC30BDE81040184700F080
:101490004DBC00F051BC000070B500F0ABFC104931
:1014A0000023C1F88430BFF34F8FD1F8803043F66A
:1014B000E074C3F3C900C3F34E335B0103EA0406CF
:1014C000024646EA8275013AC1F87452F9D2203BCD
:1014D00013F1200FF2D1BFF34F8FBFF36F8F70BDA9
:1014E00000ED00E000F0FEBB00F0A6BC00F090BCF8
:1014F00000F002BC09F0FCBC10B5044688211BF0CA
:1015000028FB204610BD90F877301BB14068036877
:101510001B6818471846704790F834100D4B10B5EB
:1015200090F874401A788C4209D03AB90A490B4AAB
:1015300008881488108001220C801A7010BD002ABF
:10154000FCD0064A0449148808880C8010800022C8
:10155000F3E700BF58B0002456B0002454B0002474
:1015600070B50D46194635B9094B40F2D221094AEA
:1015700009481BF01DFBC0E90F52003A074B18BF8A
:1015800001221A700368BDE87040D3F88C30184708
:1015900000DD010838DD010886DD01085EB00024A9
:1015A00008B5094B1B888B4203D8084B1B88934214
:1015B00005D9074B9E21074A07481BF0F9FA074B4C
:1015C0001980074B1A8008BD54B0002456B000247F
:1015D000CBDD01082EDE010886DD01085AB00024AB
:1015E0005CB00024014608B5034B186801B1012125
:1015F0000AF030FA012008BD60B000240121002269
:1016000008B5084607F013F90A4B186028B90A4BC9
:1016100028210A4A0A481BF0CBFA002204210120A3
:1016200007F0A2F9074B186018B9074B2C21034AA1
:10163000F0E708BD7C0300244CDF010895DF0108BA
:10164000C4DF01087803002422E00108024B4FF0B8
:10165000FF31186807F035B97C030024014B186886
:1016600007F05AB97C030024024B0021186807F0E8
:1016700028B900BF7C030024FFF7F0BF0023034814
:1016800003491A46006807F0AAB900BF780300248E
:101690000400002413B50023074C01A91A46206852
:1016A00007F0CDF94FF0FF33002201A9206807F0C1
:1016B000C6F902B010BD00BF7803002403685B6C5C
:1016C00018470120704703689B6A184740F2EF30C3
:1016D00070470000054B4FF080620360044BC3F875
:1016E0008820BFF34F8FBFF36F8F7047D0E10108A1
:1016F00000E100E010B504464FF45A61FFF7EAFF3D
:1017000020461BF026FA204610BD00000F4B82B089
:10171000D3F8342142F01002C3F83421D3F8342135
:1017200002F010020192019ADA6F42F01002DA67B9
:10173000DA6F22F01002DA67054B064A1A62064B8E
:101740004FF080629A6002B0704700BF00440258B8
:10175000700100245D17000800E100E0024B1B68E7
:10176000586803685B69184760B0002470B5044688
:101770000A4B0C3000262546602260602672667295
:1017800045F8203B29460AF0A1FA04F55A63EE60B9
:101790002435AB42FBD1204670BD00BFD0E101082B
:1017A00008B50B290BD8DFE801F01206100A0A0A67
:1017B0000A0808080808012008BD0520FCE7054BB9
:1017C0006621054A05481BF0F3F90020F4E70220E2
:1017D000F2E700BF64E001087FE00108C9E001080A
:1017E00008B50A2909D8DFE801F010060E08080834
:1017F000080606060600012008BD054B8721054A9C
:1018000005481BF0D5F90020F6E70220F4E700BFF9
:1018100064E0010825E10108C9E001082DE9F84369
:1018200091F81D800C4607464146FFF7B9FF94F832
:101830001E90054638464946FFF7B2FF4946064620
:101840003846FFF7CDFFA18A628B434B521A1A64C8
:101850009A61228B521A1A61E28A586342EA014263
:1018600020695A646268D863DA602768802F28D0BC
:10187000227F0FD8202F65D0402F63D0042F1AD09D
:1018800045EA0265344BC84545F40035DD615FD05B
:10189000324A44E0B7F5807F04D0B7F5007FEFD13E
:1018A0002F4900E02F4941EA0262DA61E2681A62D8
:1018B0005E62586132E045EA026242F40032DA6167
:1018C000F6E7A7683A1DDA62217F3A7845EA0165B2
:1018D00045F40035DD615E62586142B1012A21D0D4
:1018E000214B40F21111214A21481BF061F9DA69BC
:1018F000798822F47F42013922F0100242EA012263
:101900000121DA61144BDA6942F02002DA61DA6906
:101910009206FCD410229A600029B9D0154A1A60A8
:10192000BDE8F883DA69FF39788822F47F4218BF6E
:101930000121013822F0100242EA002242F0100296
:10194000DA61DFE745EA0262034B42F40032B6E7B0
:1019500040F20122E3E700BF001000520102010043
:10196000090002000A00020070E101088AE1010892
:10197000C9E001080102020038B50C46897FFFF773
:101980002FFF174BA58AE28A586342EA0542216974
:101990005A64628BD963521B1A642568082D0ED1D4
:1019A0009A611A6158620F4A207F42EA0062DA6146
:1019B000E2681A620C4A5961D9601A6038BD002287
:1019C000D8611A61E1680A0A4809C1F3C40102F446
:1019D000784200F4FC6002430A439A63034AECE74E
:1019E0000010005209000100010202000102030080
:1019F000012070470C2070470C2303FB01000830C6
:101A000070470C2303FB010008307047012070472A
:101A10004FF40A7070474FF40A7303FB010008305B
:101A200070474FF40A7303FB010008307047012030
:101A300070471020704700EB01100830704700EB32
:101A4000011008307047084600F0C4BB034B10B5C6
:101A50000446036008F09BFF204610BD88E20108A1
:101A600010B50446FFF7F2FF142120461BF071F871
:101A7000204610BD034B10B50446036008F087FFF5
:101A8000204610BD54E2010810B50446FFF7F2FFEE
:101A90004FF40C7120461BF05CF8204610BD00008E
:101AA000034B10B50446036008F071FF204610BDDB
:101AB00020E2010810B50446FFF7F2FF1821204686
:101AC0001BF047F8204610BD084B10B504460360D4
:101AD00000F51770FFF7BAFF04F12C00FFF7CAFFFB
:101AE00004F11400FFF7DCFF204610BDBCE2010842
:101AF00008B50248FFF7E8FF08BD00BF84030024D3
:101B000010B50446FFF7E0FF4FF4737120461BF059
:101B100020F8204610BD00002DE9F34100F0E4F963
:101B20000024054600F0E4F92346014622462846F3
:101B300000940FF017FA254B254A2046254D1A60D0
:101B400001F012F824480FF075F92B68BFF35B8F92
:101B5000DB0735D428461AF0FEFF88B31F4C204B14
:101B600004F51D7604F1140004F12C0804F5177730
:101B700023606060C4F80880E760266108F008FF11
:101B8000184B4046636108F003FF174B3846E36289
:101B900008F0FEFE154B04F51C70C4F85C3201F031
:101BA0005FF8224604F51C71304601F04FF83046CC
:101BB00000F010FB0E481BF019F828461AF0D7FF6A
:101BC0000C4802B0BDE8F041FFF714BCBCB00024E3
:101BD0007C150024800300240800002484030024D2
:101BE000BCE2010820E2010854E2010888E2010891
:101BF000F11A0008F41400240148FFF719BC00BFD3
:101C0000F414002470B5264E264B274C3046274D41
:101C10002360FFF7ABFD284612F0B0FA244B0022F8
:101C20004FF4807123481A861A6683F86C201A676D
:101C3000DC60C3E912122049C3E919124FF0807128
:101C40005967012183F878101C490B604FF44871E3
:101C500001801B4801804FF4F0711A48C3E9042247
:101C6000C3E90622C3E90822C3E90A22C3E90E2216
:101C7000C3E91022C3E91422C3E91622C3E90165AE
:101C800001801148C3F880200180104983F8342076
:101C90000A70C3F884200E490E4A1960DA6770BDD5
:101CA00054070024F0DC01085007002480150024AC
:101CB000F414002454B000240100000160B000249A
:101CC0005AB0002456B000245CB0002458B0002460
:101CD0007CDE0108C8DC01080148FFF7FBBC00BF3F
:101CE00054070024034B902283F85A2383F8582387
:101CF000704700BF00E100E0094A0A49D3680A487A
:101D0000C3F30A03013B9BB20B801169C1F30A01C3
:101D1000013901801364536B43F00103536370472F
:101D200000100050FC150024FA150024014BD3F8D4
:101D3000AC00704700100050024B0122C3F8AC10F9
:101D40005A6270470010005070B5044609F025F93A
:101D500023685D6E0CF09CF901462046A847236875
:101D60002046054AD3F888504FF050410023AC4636
:101D7000BDE87040604700BF000020D009F0F4B813
:101D800090F84B3013B1024B01221A7009F0F8B8E9
:101D9000F815002409F00DBA1049002370B5C1F8F8
:101DA0008430BFF34F8FD1F8803043F6E074C3F333
:101DB000C900C3F34E335B0103EA0406024646EA58
:101DC0008275013AC1F87452F9D2203B13F1200F09
:101DD000F2D1BFF34F8FBFF36F8F70BD00ED00E006
:101DE000034B5B69DB0301D5FFF7D6BF704700BF2C
:101DF00000ED00E008B509F081F8044B5B69DB03F6
:101E000003D5BDE80840FFF7C7BF08BD00ED00E0FF
:101E1000084B4FF08062C3F88820BFF34F8FBFF3A9
:101E20006F8F4FF08072C3F88820BFF34F8FBFF3DE
:101E30006F8F704700E100E0034B4FF080629A60C3
:101E40004FF080729A60704700E100E010B5144CCA
:101E5000236823B3134B144A1B6C11888B4213D194
:101E6000124B198803F08CFF226892F86630013318
:101E700082F86630FFF702FC206809F0D1FD0020EF
:101E8000BDE81040FFF7DEB903F07AFF2068036871
:101E90001B6A98470020BDE81040FFF705BA10BD47
:101EA00060B0002400100050FC150024FA15002436
:101EB000704710B5044604211AF04BFE204610BDB1
:101EC000012908B506D0022908D059B900F098FEBA
:101ED000006808BD00F094FE4068FAE700F090FE4C
:101EE0008068F6E70020F4E700487047DCE201086C
:101EF0000220704713B5002451B1036801AA019470
:101F00008DF803409C680DF10303A04702B010BD9B
:101F10000846FBE740897047808970478088704792
:101F200083798288981880B27047C07900F07F006A
:101F30007047C079C0097047704710B50446082142
:101F40001AF007FE204610BD7047704700F59673E3
:101F50000868496803C3704770477047416070471D
:101F600070470000064BC0F84401C0F84831002318
:101F7000C0F84C3100F5A073C0F83C31704700BF89
:101F8000252000080123037270477047704710B482
:101F900041680346C2689B68541001EB6200D20797
:101FA00048BF0A595DF8044B48BFD35818474368E7
:101FB0002BB183682BB9C06800F001007047184648
:101FC00070470120704710B504460C211AF0C1FD7E
:101FD000204610BD10B5044610211AF0BAFD204667
:101FE00010BD10B504464FF4AC711AF0B2FD204696
:101FF00010BD08B50CF04CF8BDE808400CF0EEBB85
:1020000010B50446D0F83C0158B10368DB68984726
:1020100038B1D4F83C0103689B6898470023C4F8A2
:102020003C3110BD2DE9F14FD0E9545A0746A8685C
:1020300003681B6A9847B0F50A7F05D2454BA32178
:10204000454A46481AF0B4FD686803681B6A984719
:102050000F2803D8424BA4213F4AF2E7E8680368FF
:102060001B6A98470B2803D83E4BA5213A4AE8E75C
:10207000DFF8F8900CF00CF80CF010F8D9F800002C
:1020800010B10368DB689847D9F8000010B1036805
:102090001B689847DFF8D880D8F8000010B10368B3
:1020A0005B699847D7F8380110B103685B689847B7
:1020B000D8F8000010B103681B689847D7F83801BA
:1020C00010B103689B689847E86800214FF0000B47
:1020D00003685B6A9847244B0446C0F804B0036069
:1020E000594680F808B0A86803685B6A98470646B6
:1020F00000F00EFE6868594603685B6A984705461B
:10210000314600F0BFFDC9F80040C7F83851C8F8A3
:102110000060E5B12B1DCAF8003030463368C5F8C1
:1021200008A0DB68F56398472B6828461B6898472A
:10213000214630460DF092FB236820461B699847E4
:10214000236820465B6901B0BDE8F04F18472B4675
:10215000E1E700BF14E30108A2E30108A6E40108D7
:10216000EDE4010890E50108A0E60108A0B0002414
:102170009CB00024F8B5044617460E460BF0AAFFA3
:10218000104B00251C6029460F4BC4E954760F4EB6
:10219000236030680E4BC4E95255C4E950350368DA
:1021A000C4E94E559B689847284600F0DDFC33682B
:1021B00093F876200AB1D86C00B9986813F0C5FD81
:1021C0002046F8BDACB0002454E6010860B00024FD
:1021D0003CE60108064BC0F84401C0F84831002332
:1021E000C0F84C3100F5A073C0F83C31704700BF17
:1021F00025200008006A7047406A704770478B8846
:102200008069DB0A0A6850F823001044704710B553
:10221000C2B1137BB3B1547BD27A240204F4E064DC
:102220001443C26998B202EB840213888B4202D134
:1022300092F9020010BD05D80138043280B200289E
:10224000F3D1F7E70020F5E710B5044628211AF08E
:1022500080FC204610BD000030B589B00446BDF8B2
:1022600050500695BDF84C5005959DF8405004958A
:102270009DF83C5003959DF8385002959DF83450D8
:1022800001959DF8305000950CF048FF064B204614
:102290002360119BA361129BE361159B2362169B34
:1022A000636209B030BD00BFC4E60108002070477A
:1022B00081807047C18070470181704741817047BC
:1022C0007047704770477047704710B4C488036800
:1022D000121B84885B6D091B12B25DF8044B09B2B6
:1022E00018474FF6FF7383814FF0FF330362136883
:1022F000C36110607047806A7047704770477047CD
:102300007047704790F825201AB190F8242002B148
:102310001860704730B585B00368044601816D468A
:102320000146D3F884303C342846984795E80700A6
:1023300084E8070005B030BD30B585B003680446B9
:1023400041816D460146D3F884303C342846984795
:1023500095E8070084E8070005B030BD0022028040
:1023600042808280C280704780F8361070470368D0
:1023700070B504461B6B15469847236820462946CE
:102380005B6EBDE87040184700207047806C704756
:10239000704770477047704790F82C304BB100F190
:1023A0006C021268C2653BB100F174031B680366DE
:1023B000704700F16802F4E700F17003F6E7704738
:1023C0007047704730B444680346C2689B68551034
:1023D00004EB6200D20748BF625930BC48BFD358F3
:1023E000184743682BB183682BB9C06800F001001F
:1023F0007047184670470120704790F82D3080F8DC
:102400005A30704710B504464C211AF0A2FB204602
:1024100010BD10B5044678211AF09BFB204610BD74
:1024200010B5044610211AF094FB204610BD10B5DB
:1024300004464FF409711AF08CFB204610BD90F849
:10244000252012B103685B691847704710B5044630
:10245000006B50B10368DB68984730B1206B2146B0
:102460000368BDE810409B68184710BD00F58872EE
:10247000914202D10368DB6A184700F5C4729142A9
:1024800002D103681B6BF7E770470000036870B563
:102490005E6B0446114B8DB21B682BB9104B6C213F
:1024A000104A11481AF084FB1049828D0988914224
:1024B00003D80F4B6D210B4AF3E713F812200D4B95
:1024C0001B6853F822000368DB6A9847281A3346D2
:1024D00001B22046BDE87040184700BFB0B00024EC
:1024E00014E7010856E7010891E70108B4B0002499
:1024F000D8E70108B8B000240B7970B504460D4642
:1025000090F82C609BB98EB9B3FA83F320465B092F
:1025100084F82C302368D3F88C3098472368204601
:102520005B69984716B12B79012B03D070BD002E43
:10253000FCD0E9E723682046D3F88830BDE8704036
:10254000184700224FF0FF318260C0E90021704738
:10255000036870B504461B6B1546984723682046F0
:1025600029465B6BBDE87040184770B504461D46B0
:10257000BDF91060FFF7ECFF2368294620469B6BEE
:102580009847236831462046DB6BBDE8704018470A
:102590000022C0E90122C0E90322C0E90522C0E906
:1025A00007224FF480728284014A0260704700BFA4
:1025B0005CE8010810B50446262200211AF0FDFC53
:1025C0002046FFF7E5FF044B20462360FF2384F8F5
:1025D00026300023A36210BD00EE010838B5044682
:1025E0000D46262200211AF0E8FC2046FFF7D0FF16
:1025F000064B2046294623602B88E384FF2384F87A
:10260000283009F0D9FF204638BD00BFD0EE0108C0
:102610004FF47F4370B5838540F2011300250646D1
:1026200083840446114B85620563C0E90155C0E906
:102630000355C0E90555C0E9075546F8343B304617
:10264000FFF7B8FF0A4B2A462946304663632566E2
:10265000A4F86450C4E91A55C4E91C55FFF778FF83
:102660002046314608F0A6F9204670BD54E901081D
:1026700068EE01082DE9F04F044600254FF6FF7A79
:102680004FF07F4B274604F16C0904F1980804F1E0
:10269000C4062DED028B8BB00CF034FF8F4BE5633D
:1026A00047F8403B3846FFF785FF08A94846ADF894
:1026B00020A0FFF793FF08A94046ADF820A0FFF740
:1026C0008DFF2622294630461AF077FC3046FFF768
:1026D0005FFF834BA4F8F0A004F5C47AC4F8EC3093
:1026E0004FF47F03C4F8F450C4F8F8307D4BA4F8DD
:1026F000FC50C4F8C4304FF0FF33C4F80051C4F8A4
:102700000C51C4E9413504F58873184608EE103AB7
:10271000FFF77EFF5046FFF77BFF734B2A462946A3
:102720003846C4E98534714BC4E987354FF4F073FA
:1027300000934FF44873FFF718FF2A46294648468E
:10274000C4F868B0FFF704FF08A94846ADF8205068
:1027500009F032FFD222DC214046FFF7F9FE4FF0AC
:10276000010308A94046ADF8203009F025FF2023D9
:10277000E3224FF4BD71304600932D23FFF7F5FEA1
:10278000D4F8C430C4F8F4B00DF1100BD3F8843091
:1027900031465846A4F8F850984704F580739BE8F2
:1027A000070083E80700524B04F5007B1B682BB938
:1027B000504B6021504A51481AF0FAF9504B1B888F
:1027C0001BB9504B61214C4AF5E74F4B294618681D
:1027D00000F006FA4D4A03460A2158460EF01CFB4B
:1027E0003F4BC4F80CB14FF0320B08934FF001038C
:1027F00008A93046ADF8243009F012FD5B462A46A0
:10280000294604F5A270CDF800B0FFF7AEFE4FF0F8
:1028100005033F4A3F49A4F874313F483F4BC4E9A0
:102820006010C4E95E3218EE100AFFF7B5FD5B4692
:1028300018EE100A40F23D124FF49071CDF800B03E
:10284000FFF793FE04F5057C5B462A46C4F840C1B9
:10285000294604F5DE70CDF800B0CDF80CC04FF07D
:102860000505FFF782FE2D4B294A2A492A48A4F87C
:10287000EC51C4E97C32C4E97E105046FFF78CFD70
:1028800040F23D125B46504640F2CF11CDF800B009
:10289000FFF76BFE039B201D3946C4F8B831039047
:1028A00008F088F84946039808F084F841460398F0
:1028B00008F080F83146039808F07CF818EE101AFA
:1028C000039808F077F80398514608F073F820460B
:1028D0000BB0BDEC028BBDE8F08F00BF08EA010829
:1028E0000CE30108C4E80108F0E901086D240008C0
:1028F000B0B0002414E7010816E8010891E70108C8
:10290000B4B00024D8E70108BCB000244EE80108A8
:10291000CC9900FF663300FF996633FF996600FF8C
:102920007047000030B5154D8DB02C68BFF35B8F3C
:1029300014F001041ED128461AF00DF9D0B13F233E
:1029400001220F4907930F4B0F4806930F4B089432
:1029500003940094CDE904430423CDE90944CDE96F
:1029600001320A23FFF778FC09481AF03FF928469C
:102970001AF0FDF804480DB030BD00BF0016002469
:1029800060FB010844F301080416002450F3010819
:10299000212900087047000030B5154D8DB02C6816
:1029A000BFF35B8F14F001041FD128461AF0D3F84F
:1029B000D8B12D2301220F4907930F4B0F480693DF
:1029C0000F4B089403940094CDE904430423CDE90C
:1029D0000944CDE901321B230B22FFF73DFC0948D6
:1029E0001AF004F928461AF0C2F804480DB030BDB8
:1029F0002C16002470FB010848F30108301600244F
:102A000054F30108952900087047000030B5154DB2
:102A10008DB02C68BFF35B8F14F001041ED12846E3
:102A20001AF099F8D0B13F2301220F4907930F4BB9
:102A30000F4806930F4B089403940094CDE9044388
:102A40000423CDE90944CDE901322823FFF704FC32
:102A500009481AF0CBF828461AF089F804480DB056
:102A600030BD00BF581600240CFC01084CF30108CF
:102A70005C16002458F30108092A0008002070475A
:102A8000002070470EB403B503AB002153F8042BAC
:102A900001930CF073F902B05DF804EB03B07047DA
:102AA0000CB407B504AB53F8042B01930CF066F992
:102AB00003B05DF804EB02B070470000436C10B542
:102AC000044673B3038F2BB9184BC021184A194819
:102AD0001AF06EF8C38E00EB43035B8C0BB30DF062
:102AE000EDFB238F012B03D8134BC521134AEEE7CF
:102AF000E28E40F63F10531C9BB2092B194688BF4B
:102B0000A3F10A0104EB4101498C814209D10A2B4E
:102B100004EB420228BF0023508C04EB430358848B
:102B200051842046BDE810400DF0CABA3CEA0108C5
:102B300045EA0108F0EA01083AEB010848EB010810
:102B40000DF087BA10B586B002AC84E806001A46CC
:102B50000AAB214605930193099B0093089B0AF059
:102B6000CDFD06B010BD000038B518BB124B1348A0
:102B70001C681349B4B1226822440260626822448E
:102B80000A60A26814440F4B00221A8000F038F843
:102B9000054600F033F80C4B1C600C4B1D600C4BD1
:102BA000188007E00B4B03600B4B0B600B4B1C6852
:102BB000002CE8D138BD00BF8416002488160024FC
:102BC0008C16002490160024B0B00024B8B0002465
:102BD000B4B0002424FC01081CFC010830FC0108EE
:102BE000044B1B6853F82100034B1B6803EB4000A8
:102BF000704700BF8C1600248816002402207047FE
:102C0000004870479416002410B5054CFFF7C4FE29
:102C10002060FFF7FBFE6060FFF784FEA06010BD40
:102C200094160024704710B504464FF4AC7119F0A7
:102C300090FF204610BD10B50446D0F8540100F0B6
:102C400012F82046BDE810400BF0D0B810B504468D
:102C5000FFF790FA014B2046236010BD24EC0108D9
:102C60000022026070477047704704387047704711
:102C700010B50446102119F06CFF204610BDA0F1DC
:102C80000400F5E70022C1608260044A10B502F139
:102C9000080420320460426010BD00BF68EC0108E7
:102CA00070477047FFF777BBB0F824320A21084A13
:102CB000013B1BB210B50446A0F8243200F50070A9
:102CC0000EF0AAF804F1C400BDE810400CF078B989
:102CD00090EC0108B0F824320A21084A01331BB2F3
:102CE00010B50446A0F8243200F500700EF094F8F8
:102CF00004F1C400BDE810400CF062B990EC01088A
:102D000010B504464FF40A7119F023FF204610BD98
:102D100010B50446FFF7AEFC034B204623600023AA
:102D2000A4F8243210BD00BF9CEC010840F201134E
:102D30004FF4487200200B8005238B704FF4F07322
:102D4000C1E90123704790F82430012B04BF002310
:102D500080F82430002070470020704710B40469C8
:102D60000089A4465DF8044B604710B4C46800892C
:102D7000A4465DF8044B604770B500F118050E4697
:102D80000978284600F0F4F804463179284600F026
:102D9000FBF80444317A284600F002F90444317B00
:102DA000284600F009F90444317C284600F010F967
:102DB0000444317D284600F017F9C44214BF4FF097
:102DC000FF30002070BD183000F026B937B500F193
:102DD00018050C4601A9284600F0BDF808BB9DF86F
:102DE0000430052B98BF1846042320600321284691
:102DF0000DEB030200F09CF8B0B99DF804309DF88B
:102E000005201B0203F4706313439DF807206360E1
:102E10009DF806301B0203F470631343A36003B0F4
:102E200030BD4FF0FF30DFE74FF0FF30F7E71830ED
:102E300000F08CB80121183000F0E2B80021183001
:102E400000F0DEB810B590F8243004466BB9036882
:102E500098472046FFF7F2FF00384FF0010318BFF4
:102E6000012084F82430404210BD0020FCE70020FF
:102E7000704770B500F1180588B00C4628466946C1
:102E800000F069F890BB9DF80030052B98BF1846FC
:102E900020601E236A460321284600F049F840BB03
:102EA00021466D4614342A78063515F8056C130250
:102EB000920903F47063334315F8036C41F8043F3F
:102EC0008C4215F8043CCA634FEA032303F4706391
:102ED00043EA06034B6115F8023C8B6215F8013C8E
:102EE0004FEA13130B65DED108B070BD4FF0FF3011
:102EF000CEE74FF0FF30F7E790B14A680B684260C9
:102F00000A8903600281CA68C2600A6902614A696B
:102F100000624261044AC261044A826103B11847F7
:102F20004FF0FF30704700BF5D2D00086B2D00088B
:102F300010B4D0E90140A4465DF8044B604710B4DA
:102F400004688068A4465DF8044B604701230A4684
:102F50001946FFF7EDBF10B50A460C4601230221C2
:102F6000FFF7E6FF18B9237803F00F03237010BDB5
:102F700007B501238DF807100DF107029121FFF726
:102F8000DEFF03B05DF804FB07B501238DF80710E1
:102F90000DF107029221FFF7D2FF03B05DF804FBA9
:102FA00007B501238DF807100DF107029321FFF7F4
:102FB000C6FF03B05DF804FB07B501238DF80710C9
:102FC0000DF107029421FFF7BAFF03B05DF804FB8F
:102FD00007B501238DF807100DF107029521FFF7C2
:102FE000AEFF03B05DF804FB07B501238DF80710B1
:102FF0000DF107029621FFF7A2FF03B05DF804FB75
:1030000007B501238DF807100DF10702A421FFF782
:1030100096FF03B05DF804FB0A460123A821FFF7E1
:1030200087BF000008B50122074BC3E900219A6061
:1030300000221946DA604FF6FF7205F00FF90038EA
:1030400018BF0120404208BDA016002408B5022286
:10305000084BC3E9002101210022C3E902124FF607
:10306000FF72194605F0FAF8003818BF01204042F7
:1030700008BD00BFA0160024D1E9033210B51343E8
:103080004A690B4C13438A691343CA6913430422E8
:1030900022600A68214662600122C4E902234FF6D9
:1030A000FF7205F0DBF8003818BF0120404210BD68
:1030B000A016002408B5084BC3E90021082100220E
:1030C000C3E902124FF6FF72194605F0C7F800383F
:1030D00018BF0120404208BDA016002408B505F025
:1030E000DCF8003818BF0120404208BD70B50C461E
:1030F00009680546FFF796FF10B14FF0FF3070BD2D
:1031000001F044FB064601F041FB8642FBD02168FA
:103110002846FFF79BFF0028EFD12846D4E900128C
:10312000FFF7C8FF0028E8D121462846FFF7A4FF93
:103130000028E2D1A1682846FFF7D0FF003818BF69
:1031400001204042DBE74FF080624FF480334FF4C0
:103150008071C0E900234FF480524FF48063C0E9CE
:1031600002324FF48043C0E9043283614FF480237C
:10317000C0E907130020704770B59AB00E460546A7
:103180000021144606A8502219F017FF142200212E
:1031900001A819F012FF2EB9012C50D14FF0FF30C9
:1031A0001AB070BD0423621E09931020534253418C
:1031B000002E4FEAC3020B9214BF012200224FEAF5
:1031C00002114FEA82220A9140F2FA510D924FEA1F
:1031D000C32208BF05210F924FF44052089106A95F
:1031E0000E920CBF4FF080724FF0806214924FEA43
:1031F000C3624FEA437316920CBF00220522189354
:10320000012C4FF00103179202930CBF02220122FE
:103210004FF48003159241F28832CDE904302846FC
:1032200003F039F80028B9D141F2883201A92846C3
:1032300003F012F9003818BF01204042B0E7012323
:10324000B1E770B596B00C460646154600215022EF
:1032500002A819F0B2FE0023012CCDE9003304D1FD
:103260001DB94FF0FF3016B070BD0123002C029342
:1032700018BF0423059314BF012300234FEA03134F
:10328000069340D1002D0CBF0B230C23002C04937C
:1032900041F2883202A90CBF4FF480734FF480636F
:1032A000002D304609930CBF4FF400534FF44053A8
:1032B000002C0A930CBF4FF080734FF08063109383
:1032C0000CBF08230623139302F0E5FF0028C8D1A2
:1032D00002230293D4B9002D18BF122304930023B4
:1032E00041F2883202A93046139302F0D4FF00283D
:1032F000B7D100906946304603F0FEF8003818BF99
:1033000001204042AFE74EF61343BFE741F2ED2301
:10331000E4E710B596B004464C22002103A819F04A
:103320004CFE00234FF0080C4FF4006141F288324C
:103330002046CDE900330123029304230593102393
:10334000CDE9063C4EF611634FF0006C04934FF448
:10335000806309934FF44053CDE90A314FF0806305
:1033600002A910930623CDE912C34FF00053149322
:1033700002F091FF18B14FF0FF3016B010BD0223DC
:1033800041F2883202A9029341F2ED23CDE9130004
:103390002046049302F07FFF0028ECD1009069469C
:1033A000204603F0A9F8003818BF01204042E4E7A6
:1033B0002DE9F0419AB00F4605460021164606A8B1
:1033C000502219F0FAFD1422002101A819F0F5FD90
:1033D00037B9012E63D14FF0FF301AB0BDE8F0814C
:1033E0000423711E099341F2883228464C424C4115
:1033F000002F06A94FEAC40314BF4FF001084FF095
:1034000000080B934FEA08130A9340F2F96308BFD0
:103410000623089302F03FFF0028DCD1002F40F282
:10342000FA530C9041F2883208BF052306A92846BA
:1034300008934FEA88230D934FEAC4230F934FF468
:1034400040530E930CBF4FF080734FF08063149382
:103450004FEAC4634FEA447416930CBF002305235C
:10346000012E189417930CBF02230123159302F029
:1034700012FF0028AFD102231022039001A9284691
:10348000CDE901334FF48003CDE9043241F28832B3
:1034900002F0E2FF003818BF012040429DE70123FF
:1034A0009FE7F0B595B00E46054614460021502220
:1034B00068461F4619F081FD2EB9012C46D14FF008
:1034C000FF3015B0F0BD04230393631E06975A42E4
:1034D0005A41002E4FEAC203059314BF0123002373
:1034E0004FEA0313049347F28D2308BF722302931C
:1034F0000CBF4FF480734FF4806307934FEAC223ED
:103500004FEAC26209934FF440531092089314BFDC
:103510004FF080634FF080730E9319D0012C14BFCD
:103520000123022341F28832694628460F9302F0B4
:10353000B2FE0028C3D141F288321AA9284602F00F
:10354000F9FE003818BF01204042BAE70123BBE76B
:103550000123E7E72DE9F04194B00F4606461546F2
:10356000002150226846984619F027FD37B9012DF1
:103570004ED14FF0FF3014B0BDE8F0810423039327
:103580006B1E41F2883269465C423046CDF81880A5
:103590005C41002F4FEAC403059314BF01230023AD
:1035A0004FEA0313049347F28E1308BF712302936B
:1035B0000CBF4FF480734FF4806307934FEAC4232A
:1035C00009934FF4405308930CBF4FF080734FF0B2
:1035D00080630E934FEAC4634FEA447410930CBFA8
:1035E00000230523012D129411930CBF0223012304
:1035F0000F9302F050FE0028BBD141F288321A9995
:10360000304602F0D7FE003818BF01204042B2E732
:103610000123B4E770B594B00D4606461446002168
:103620005022684619F0C9FC0DBB012C21D00123A2
:10363000621E03936946304654425441002D41F2C4
:10364000883214BF012300234FEAC4044FEA031356
:103650000594049346F2996308BF6623029302F02F
:103660001AFE003818BF0120404214B070BD042378
:10367000DEE74FF0FF30F8E770B594B00D46064630
:10368000144600215022684619F097FC0DBB012C0E
:1036900021D00123621E03936946304654425441AF
:1036A000002D41F2883214BF012300234FEAC404E5
:1036B0004FEA03130594049349F6661308BF992350
:1036C000029302F0E8FD003818BF0120404214B018
:1036D00070BD0423DEE74FF0FF30F8E70F4A08B56E
:1036E0001368013B13600BB1002008BD10210C488A
:1036F00001F058FD0A48202101F054FD094A0A480A
:10370000D2F8483123F48003C2F8483101F0E2FFD7
:103710000028E9D06FF00700E7E700BFB0160024EB
:10372000001C025800440258B82000240023012243
:1037300010B5416004460362C0E90232C0E90433B7
:10374000C0E9063301F074FF014608B1012010BD45
:10375000204602F050F901460028F7D1204602F039
:1037600070F9003818BF0120F1E70000A34BA4480E
:103770002DE9F04F036093B0A24B1C68002C40F081
:10378000CD8001221A6002F031F9002840F0C68095
:103790009D4E4FF012094FF002080427D6F8403131
:1037A00010250DA9994843F08003C6F84031D6F89A
:1037B000403103F080030A930A9BD6F8403143F06E
:1037C0008003C6F84031D6F840310F9403F08003EF
:1037D0000B930B9BCDE90D59CDE9108701F0F8FB58
:1037E00020230DA989481197CDE90D39CDE90F485E
:1037F00001F0EEFBD6F8483143F48003C6F84831B7
:10380000D6F8483103F480030C930C9BD6F8903023
:1038100043F48003C6F89030D6F8903023F4800348
:10382000C6F8903003F034FF002871D0784B40F692
:10383000F6172246A24603EB5003DFF8DCB1B3FBD8
:10384000F0F06FF01D0300EB4006A7EB8007014688
:103850009B1B27EAE77723EAE37300936D4B1B6812
:1038600089464FF0000E40F27936CDF804E00EF1B3
:10387000010EB1455FD94FF0000CE046009E664551
:1038800053D8674551D395424FD01425019E05FB6F
:1038900003FA01330BEB0A057F2B4BF80A20C5E92D
:1038A00001683FD95B4A13605A4B42F210725A4981
:1038B00000271B6803924FF0FF32059343000192EB
:1038C00003F13205C3F5905BA3F511530BF10C0B1B
:1038D00009950A3B0293059B9F4238D1019B7F2BA0
:1038E00016D81421019A4C4B4A4399189B580C7CCA
:1038F00044EA03744B681B0503F470031C438B6894
:103900001B0403F470231C43CB681B029BB21C43B3
:1039100021463B48FFF70AFF00286CD1002013B076
:10392000BDE8F08F15464FF0010A08F101088C44FC
:10393000B8F1100FA2D1BEF1100F894493D101321A
:103940000144102A8CD1BAF1000FABD1ACE70B685F
:103950004FF0000C099D03FB0003029E1D441E4412
:103960000495ABEB030508966D000095049D41F2AC
:103970005C22CDF818C0A5F132060CF1010C95427D
:103980002ED9B0EB960F2BD2089E4FF0000EDDF82B
:1039900010802E44DDF8009006F2836A41F247025F
:1039A000CDF81CE00EF1010E924512D8B8F57A6FF1
:1039B0000FD340450DD236EA260A28BFCA46039ADD
:1039C000924506D2069ACDF80CA00A61079A019793
:1039D000CA60BEF5807F1E44A9EB03099844DBD181
:1039E000009ABCF5807F1D44A2EB03020092BED179
:1039F000013714316FE76FF0070090E7005800407F
:103A0000B8200024B016002400440258001C0258BC
:103A100000CA9A3BB4200024B41600241FB542F219
:103A2000107400920A4601460848CDE9013401238A
:103A300001F069FE40B1054801F0DBFF04280CBF2E
:103A40006FF065006FF0030004B010BDB8200024D3
:103A50001FB542F2107400920A4601460848CDE9AB
:103A60000134012301F006FF40B1054801F0C1FF18
:103A700004280CBF6FF065006FF0030004B010BDA8
:103A8000B820002400F082BE30B51E4C85B01E4820
:103A9000A2786178FFF78CFC78BB07231A48009363
:103AA0004FF44073A2786178FFF7FBFC28BBA27843
:103AB00061781548FFF77CFC0346F0B901251248F0
:103AC0000095A2786178FFF7ECFC0446A8B928209D
:103AD00000F062FE224629460B48FFF74DFB0346E5
:103AE00058B903AA2946009202460748FFF732FD5B
:103AF00018B99DF80C30AB4201D06FF0040005B04E
:103B000030BD00BF042100240C21002430B5254D18
:103B100085B0254CAA7869782046FFF749FC002833
:103B200038D10723AA786978204600934FF4407370
:103B3000FFF7B7FC70BBAA7820466978FFF738FC1E
:103B4000034638BB0222697820460092AA78FFF724
:103B5000A8FCF8B9282000F01FFE4FF08073204623
:103B6000E3604FF08053E36202F00EFBB0B9012234
:103B700020461146FFF700FB034658B903AA20462A
:103B8000009201221146FFF7E5FC18B99DF80C30B0
:103B9000022B01D06FF0040005B030BD6FF00300C0
:103BA000FAE700BF042100240C2100240F4A04235B
:103BB000C0E900230A680023026102228360C0E991
:103BC00005234A6842628A6803638262082242636C
:103BD000CA68012AC0E9073306BF4FF080524FF090
:103BE00080731A46C360C26202F0CEBA005000521F
:103BF00010B598B90B4CA37861785BB901220A48DB
:103C0000FFF71FFB10B16FF0040010BD022300206E
:103C10002370FAE70448FFF77CFBF3E76FF001003D
:103C2000F3E700BF042100240C21002410B550B993
:103C3000094C2378022B09D1084802F05FFD40B9F6
:103C40000123237010BD6FF00100FBE76FF01A0035
:103C5000F8E76FF00300F5E7042100240C210024AD
:103C600010B5002854D12C4C2378022B49D00023C6
:103C700004212A482380A37001F094FA20212848C7
:103C800001F090FA4021274801F08CFA4FF480713E
:103C9000254801F087FA4FF40071234801F082FAB9
:103CA0008021214801F07EFA40211F4801F07AFA74
:103CB00002211B4801F076FA08211C4801F072FA33
:103CC00040211B4801F06EFA4FF48041154801F085
:103CD00069FA184B1848DA6F42F48042DA67DA6FF3
:103CE00022F48042DA67D3F8342122F48042C3F808
:103CF000342102F0BDFA00280CBF00206FF0030051
:103D000010BDFFF793FF0028B1D06FF00400F7E774
:103D10006FF00100F4E700BF042100240004025802
:103D2000000802580018025800140258001C0258DB
:103D3000000C0258004402580C2100242DE9FF41D8
:103D40000E461746002863D1344D2B78022B62D0E3
:103D50006B78012B52D10129AA780AD1974208D158
:103D6000012300246E702B70AF70204604B0BDE8B4
:103D7000F081DFF8AC8001214046FFF719FB0346D4
:103D800010B16FF00404F0E7ADF80C00009040466D
:103D9000AA786978FFF785FB04460028F1D128202E
:103DA00000F0FAFCAB78012B0AD14046C8F80C4071
:103DB000C8F82C4002F0E8F9002818BF6FF003049F
:103DC000002217481146FFF7D7F903460028D8D13B
:103DD00003AA0146009202461148FFF7BBFB0028E8
:103DE000CFD19DF80C30002BCBD1002CBDD1012EB2
:103DF000B6D1AB7833B9FFF789FE05E00129AFD121
:103E0000002AF8D1FFF740FE04460028A8D0ACE70E
:103E10006FF00104A9E76FF01904A6E7042100245C
:103E20000C2100242DE9F04F0D469BB0002840F0F6
:103E30005481AD4E96F80080B8F1000F03D00020F9
:103E40001BB0BDE8F08FA94B0A244FF040094FF09A
:103E5000020BD3F834214FF0030A11A9A44842F40D
:103E600080422027C3F83421D3F8342102F4804261
:103E70000192019ADA6F42F48042DA67DA6F22F433
:103E80008042DA67D3F8402142F00202C3F84021B1
:103E9000D3F8402102F002020292029AD3F84021A4
:103EA00042F00402C3F84021D3F8402102F004029A
:103EB0000392039AD3F8402142F04002C3F8402114
:103EC000D3F8402102F040020492049AD3F8402132
:103ED00042F02002C3F84021D3F8402102F0200232
:103EE0000592059AD3F8402142F02002C3F8402100
:103EF000D3F8402102F020020692069AD3F840211E
:103F000042F02002C3F84021D3F8402102F0200201
:103F10000792079AD3F8402142F02002C3F84021CB
:103F2000D3F8402102F020020892089AD3F84021E9
:103F300042F00402C3F84021D3F8402102F0040209
:103F40000992099AD3F8402142F08002C3F8402137
:103F5000D3F8402102F080020A920A9AD3F8402155
:103F600042F00802C3F84021D3F8402102F00802D1
:103F70000B920B9AD3F8402142F04002C3F8402143
:103F8000D3F8403103F040030C930C9B0123CDE99F
:103F9000119BCDE9133A159401F01AF811A955486F
:103FA0001197159401F014F80423CDF84C804FF0CC
:103FB000090811A950481193CDF8548001F008F870
:103FC0004FF4807311A94D481193159401F000F836
:103FD0004FF4007311A949481193159400F0F8FFAC
:103FE000802311A945481193159400F0F1FF11A900
:103FF0004248CDF84490159400F0EAFF11A93D48DD
:10400000CDF844B0159400F0E3FF082311A93C4813
:104010001193CDF8548000F0DBFF11A93948CDF899
:104020004490159400F0D4FF4FF4804311A9304818
:104030001193CDF8548000F0CBFF11A8FFF783F85F
:10404000119BCDF838A093FAA3F30BB1B3FA83F721
:1040500000230DA92C480F936B780D971093FFF751
:10406000A5FD024600283BD101462748FFF7D2FABA
:10407000024678BB01462448FFF7FEFA024648BBD9
:1040800001212148FFF7C6FA024618BB01211E484C
:10409000FFF7F2FAF0B901221B481146FFF7BAFA0E
:1040A000C0B9012218481146FFF7E6FA90B901237A
:1040B000B0706420338000F06FFBB27871781248E2
:1040C000FFF75AF830B96A782978FFF737FE0028E9
:1040D0003FF4B5AE6FF00400B2E66FF00100AFE65A
:1040E0006FF00300ACE600BF042100240044025836
:1040F0000018025800080258000402580014025820
:10410000001C0258000C02580C21002413B5044670
:10411000002845D1244B2548036004F091F87A200B
:1041200000F09EFB224B2348036000F023FD80211A
:10413000214801F037F84CF20371204801F032F8C1
:104140004FF683711E4801F02DF84FF63F011D48D0
:1041500001F028F848F233111B4801F023F8C02180
:104160001A4801F01FF81A4B1B78012B16D1194B76
:104170004FF47F411548D3F8402142F48072C3F8D0
:104180004021D3F8403103F480730193019B01F087
:1041900009F840F2FF61104801F004F8204601E000
:1041A0006FF0010002B010BD404100526C210024AC
:1041B00040000052A021002400000258000C0258C8
:1041C000001002580014025800180258001C02582F
:1041D00068210024004402580020025810B5012430
:1041E0004FF0400E02614FF4C07288B0DFF844C057
:1041F0000223C0E90241C0E905E24FF44061002218
:104200000793C0E907214FF48051C0E90912072242
:104210000421C0E900C4CDE903126944CDE90132AB
:10422000CDE9053303F0E4FF003818BF012008B0E2
:1042300010BD00BF40410052F0B58FB0002840F0E3
:104240000D81894C0220894F0326397009A9D4F8C1
:10425000343143F48053C4F83431D4F8343103F4A6
:1042600080530093009BD4F8343143F00103C4F829
:104270003431D4F8343103F001030193019BD4F8B5
:10428000403143F00103C4F84031D4F8403103F029
:1042900001030293029BD4F8403143F00803C4F8B1
:1042A0004031D4F8403103F008030393039BD4F862
:1042B000403143F01003C4F84031D4F8403103F0EA
:1042C00010030493049BD4F8403143F02003C4F856
:1042D0004031D4F8403103F020030593059BD4F816
:1042E000403143F04003C4F84031D4F8403103F08A
:1042F00040030693069BD4F8403143F08003C4F892
:104300004031D4F8403103F080030793079B012329
:10431000CDE90A030C235648CDE90C6380230993A9
:1043200000F056FE4CF2037309A95248099300F0BD
:104330004FFE4FF6837309A94F48099300F048FEDA
:104340004FF63F0309A94D48099300F041FE48F29A
:10435000331309A94A48099300F03AFEC02309A97A
:104360004848099300F034FE3B78012B19D1D4F86A
:10437000403109A9434843F48073C4F84031D4F86C
:10438000403103F480730893089B4FF47F430993F3
:1043900000F01EFE40F2FF6309A93B48099300F0BC
:1043A00017FE3A4C4FF080414FF0805340F202220A
:1043B000374EC4E901133B7880213463012B40F66A
:1043C0000803E1601BBF4FF481724FF4816308461C
:1043D00010250CBF20254020A1622664C4E90523D6
:1043E0004FF00073C4E9075063620025294B204653
:1043F0002360C4E90B55C4E90D5501F04EFD20467C
:1044000001F0DCFC2A460F217A2000F0E9F97A203D
:1044100000F018FA3B783046012B0BBF2022102207
:1044200004210821FFF7DAFED8B91B49082203232B
:104430000861C1E9002340F20363C1E9023030237F
:10444000C1E905304FF400733046CB61FEF74EFEF4
:10445000002818BF6FF004000FB0F0BD6FF001002E
:10446000FAE74FF0FF30F7E70044025868210024D4
:1044700000000258000C02580010025800140258A4
:1044800000180258001C025800200258182200246C
:104490006C21002440000052842200240121FFF7F7
:1044A000CBBE00002DE9F0410C4688B0002863D156
:1044B0000B685A1EB2F5487F5ED24A68511EB1F5AC
:1044C000F07F59D2934228BF1346E2689A4253D8EC
:1044D00070232B4D019002A9ADF810302846294BCE
:1044E0000293294B0393294B0693294B0593294BA0
:1044F0000793FEF701FD28B14FF0FF35284608B0BD
:10450000BDE8F08101A92846FEF75DFC0028F3D143
:10451000019B512BF0D1204B2846204FDFF884809F
:104520003D60C8F800301B68984705460028E3D175
:10453000236802A91A4E3868336063687360A36801
:10454000B360E368F360D8F80030DB69984700286F
:104550000FDB039B22683361049B61687361E3682E
:104560001A440B4401320133B2617362C6E9072376
:10457000C4E76FF00405C1E76FF00105BEE700BFB7
:10458000A42200246D370008DD360008513A0008E7
:104590001D3A0008853A00080C000024CC220024B3
:1045A000D0220024F82200242DE9FF410C460028E7
:1045B00053D12B4B01A92B4A1B6810681B699847E4
:1045C000002847DB284901988E690D6A00283DD0F4
:1045D000D1F808E0D1F810801EF0080FDDE902C71D
:1045E00019BF3B4662463A4663461EF0020F1CBFA7
:1045F00008F1FF33A3EB0C03D1F814C01EF0040F35
:1046000018BFACEB07020F687B434F6820607A430A
:10461000CF68B3FBF8F3B2FBFCF2B3426360A26075
:104620008CBFA3EB060CA6EB030CAA428CBF501B5D
:10463000A81A674501D3874205D28B610A62002020
:1046400004B0BDE8F081C4E90165F8E7C4E90006FB
:10465000A560F5E76FF00400F2E76FF00100EFE707
:10466000F8220024CC220024D0220024224AD2F8AE
:10467000883043F47003C2F88830204A136803F08E
:104680000F03022B05D8136823F00F0343F0030335
:1046900013601B4B1A6842F001021A6000221A6173
:1046A000184A19680A4015491A600A6812F00C0F76
:1046B00005D00A6822F00F0242F003020A600022CD
:1046C00011499A61DA611A6299621049D9621049F6
:1046D00019635A639963DA6319645A64196821F497
:1046E000802119601A6643F2D2020A4B1A604FF019
:1046F0000062014B9A60704700ED00E0002000521C
:10470000004402587FEDF6EA000202020000FF01B9
:10471000800201010040005210B5032000F04EF865
:1047200002F0CCFD0F49104A8B69C3F30323D35C1D
:1047300003F01F03D8408B6903F00F03D35C0B4ACF
:1047400003F01F0320FA03F31360094B18600020E5
:10475000FCF71CFC044618B9FCF72CF9204610BDE8
:104760000124FBE700440258D0EC0108400000247B
:104770003C000024034A044B11681B780B4413606F
:10478000704700BFFC22002444000024014B18683D
:10479000704700BFFC22002438B50446FFF7F6FF3F
:1047A0000546631C1EBF044B1B78E418FFF7EEFFA1
:1047B000431BA342FAD338BD440000240749030237
:1047C000CA6803F4E06322F4E0621204120C13439B
:1047D00043F0BF6343F40033CB60704700ED00E06B
:1047E000164B30B5DC68C4F30224C4F10703251D61
:1047F000042B28BF0423062D4FF0FF358CBF033C4C
:10480000002405FA03F3002805FA04F521EA03035E
:1048100022EA050203FA04F343EA02034FEA031310
:10482000DBB206DB00F1604000F5614080F8003348
:1048300030BD00F00F00024A1354F9E700ED00E02C
:1048400014ED00E0002807DB0123410900F01F0000
:10485000024A834042F82130704700BF00E100E087
:1048600000280CDB4309012200F01F00044920331B
:10487000824041F82320BFF34F8FBFF36F8F704703
:1048800000E100E0BFF35F8F044B5A6A22F48032EC
:104890005A620022C3F89420704700BF00ED00E088
:1048A000064B40F00100C3F894005A6A42F480328B
:1048B0005A62BFF34F8FBFF36F8F704700ED00E078
:1048C0004378144A10B5C2F898300178E9B14368CA
:1048D000C2F89C30C37A047B1B0643EA04730B4383
:1048E000817A43EAC143417B43EA8143817B43EAC6
:1048F0004143C17B43EA0143417A43EA0123017A00
:1049000043EA4103C2F8A03010BDC2F89C10C2F8BF
:10491000A010F9E700ED00E010B5044608B9012049
:1049200010BD437F03F0FF0213B90277FCF75AF87A
:10493000022363772379E3B92368134A5A619A689B
:1049400022F018029A6062792368D2B94FF0FF32E0
:104950001A6100209A68616922F060020A43A16925
:104960009A609A6822F080020A439A600123637772
:10497000D6E7D4E90212204600F008F80028E2D079
:10498000CDE72269E4E700BFB71DC1041F2310B5BE
:10499000013B1CD321FA03F4E407F9D5102A12D005
:1049A00004D83AB1082A10D001200BE0182AFBD114
:1049B000062BF9D800684161836823F0180313437C
:1049C0008360002010BD072BF3E70F2BF1E7002ACF
:1049D000EAD1EFE70368234A934210B532D0183288
:1049E00093422FD0183293422CD01832934229D0C0
:1049F0001832934226D01832934223D01832934271
:104A000020D0183293421DD002F55672934219D02D
:104A10001832934216D01832934213D01832934270
:104A200010D0183293420DD0183293420AD0183267
:104A3000934207D01832934204D023F0FF038365DA
:104A4000184610BDDAB21821074C23F47F73103AD0
:104A500023F003035F2AB2FBF1F1615C88BF0433EA
:104A6000C165ECE710000240E0EC01080268214952
:104A7000D3B28A4228D014318A4225D014318A42D6
:104A800022D014318A421FD014318A421CD01431F2
:104A90008A4219D014318A4216D014318A4213D076
:104AA0001821103BB3FBF1F313491144A8291ED977
:104AB00003F18052012103F01F0302F5024201FAC3
:104AC00003F30E4992000EE01422083B0121B3FBD0
:104AD000F2F303F1B05203F01F0302F5164201FA9C
:104AE00003F3074992008366C0E918217047083331
:104AF000DEE700BF08540258F0FBFDBF800802400B
:104B0000805802580279511E072910B521D8036830
:104B1000134CA3421ED01434A3421BD01434A3421E
:104B200018D01434A34215D01434A34212D0143434
:104B3000A3420FD01434A3420CD01434A34209D0A2
:104B4000084B1344084A9B00C0E91B3201238B40E9
:104B5000436710BD054B1344054A9B00F4E700BFB3
:104B6000085402583F820010400902403F96001648
:104B70004059025870B5054608B9012070BD046857
:104B8000A94EB4422DD0A94B9C422AD018339C4246
:104B900027D018339C4224D018339C4221D018339C
:104BA0009C421ED018339C421BD018339C4218D014
:104BB00003F556739C4214D018339C4211D018331D
:104BC0009C420ED018339C420BD018339C4208D024
:104BD00018339C4205D018339C4202D018339C42B3
:104BE00034D12368B44223F00103236069D1002348
:104BF000284623606360A360E3602361212363612F
:104C0000FFF7E8FEEB6DB44203F01F024FF03F03E5
:104C100003FA02F3836040F0C2802846FFF726FFC4
:104C20002B6E002B40F0F9806B68013B072B08D8F6
:104C30002846FFF767FFEB6E00221A60D5E91C32A9
:104C40005A600023C5E91B336B672DE0236823F00E
:104C500001032360764B9C426AD1002328462360DF
:104C60006360A360E3602361FFF7B4FEEB6D03F0C4
:104C70001F020123934043606E4B9C42CDD01433FE
:104C80009C42CAD014339C42C7D014339C42C4D037
:104C900014339C42C1D014339C42BED014339C4286
:104CA000BBD014339C42B8D00020686585F834002E
:104CB00085F83500C5E90F00C5E91100C5E9130005
:104CC0005CE75A4B9C4292D018339C428FD01833E9
:104CD0009C428CD018339C4289D018339C4286D099
:104CE00018339C4283D018339C4280D003F556730E
:104CF0009C423FF47CAF18339C423FF478AF1833AA
:104D00009C423FF474AF18339C423FF470AF1833A9
:104D10009C423FF46CAF18339C423FF468AF1833A9
:104D20009C423FF464AF18339C423FF460AF91E77C
:104D3000414B9C4291D014339C428ED014339C4200
:104D40008BD014339C4288D014339C4285D01433CA
:104D50009C4282D014339C423FF47FAF354B9C423F
:104D60003FF47BAF14339C423FF477AF14339C4243
:104D70003FF473AF14339C423FF46FAF14339C4243
:104D80003FF46BAF14339C423FF467AF14339C4243
:104D90003FF463AF14339C427FF4EFAE5DE7234BE7
:104DA0009C423FF43AAF18339C423FF436AF18337D
:104DB0009C423FF432AF18339C423FF42EAF18337D
:104DC0009C423FF42AAF18339C423FF426AF18337D
:104DD0009C423FF422AF03F556739C423FF41DAF53
:104DE00018339C423FF419AF18339C423FF415AF7F
:104DF00018339C423FF411AF18339C423FF40DAF7F
:104E000018339C423FF409AF18339C423FF405AF7E
:104E100018339C423FF401AF2EE700221A60D5E917
:104E200019325A6000E700BF10000240280002401B
:104E3000082C0248085402581C2C024810B504469D
:104E4000002836D090F8613003F0FF021BB980F8DB
:104E50006020FBF7DFFD0223E069626884F86130BF
:104E600023680243A069196821F4E02121F0400180
:104E70000A431A60596BA26821F48371024321F03E
:104E800001010A43E1685A631A6C120C12040A43C6
:104E90001A64596BD4E9040221F44011520542EA24
:104EA000005200200A435A630123606684F861308F
:104EB00010BD0120FCE770477047036870B55E685D
:104EC00004461D68F20714D5E90512D51A6822F4C4
:104ED00080721A60426E42F00102426601229A60BC
:104EE000042380F86130002380F86030436A03B106
:104EF0009847B20616D5AB0414D523681A6822F475
:104F000000521A6020229A60636E43F002036366C7
:104F1000042384F86130002384F86030636A0BB1A5
:104F200020469847300716D5290514D523681A68F6
:104F300022F400621A6008229A60636E43F0040350
:104F40006366042384F86130002384F86030636A68
:104F50000BB12046984772070BD56B0509D523681E
:104F600020461A6822F480621A6004229A60FFF7D1
:104F7000A2FFB00714D5A90512D523681A6822F438
:104F800000721A6002229A60636E6366012384F8DD
:104F90006130002384F86030236A0BB120469847C3
:104FA000F20613D5EB0411D5236820461A6822F4C3
:104FB00080521A6010229A60636E6366012384F83F
:104FC0006130002384F86030FFF776FF70BD000089
:104FD0002DE9F74F0023DFF8C8914FF0B0440A687D
:104FE00032FA03F502D103B0BDE8F08F4FF0010EA5
:104FF0000EFA03FE1EEA020200F0BC804E684FEA81
:1050000043084FF0030C06F003050CFA08FC6F1E72
:105010006FEA0C0C012F34D8876807EA0C0ACF68B6
:1050200007FA08F747EA0A078760476827EA0E0E7B
:10503000C6F300179F4047EA0E074760C768022D76
:1050400007EA0C0E8F6807FA08F747EA0E07C760F1
:1050500019D14FEAD30A03F0070B4FF00F0E00EB04
:105060008A0A4FEA8B0BDAF820700EFA0BFE27EA59
:105070000E0E0F6907FA0BF747EA0E07CAF8207001
:1050800001E0032DDAD1076805FA08F516F4403F70
:1050900007EA0C0745EA070505606BD0D9F85451BB
:1050A00023F0030703F0030C45F0020507F1B047B6
:1050B0004FEA8C0CC9F8545107F58067D9F8545160
:1050C00005F002050195019D0F25D7F808E005FAC6
:1050D0000CF52EEA050E314DA8424DD005F5806540
:1050E000A8424BD005F58065A84249D005F58065FA
:1050F000A84247D005F58065A84245D005F58065F2
:10510000A84243D005F58065A84241D005F58065E9
:10511000A8423FD005F58065A8423DD005F58065E1
:10512000A8420CBF09250A2505FA0CF516F4801FC4
:1051300045EA0E05BD606FEA020725680CBF3D40D9
:10514000154316F4001F256065680CBF3D401543EC
:1051500016F4003F6560D4F884500CBF3D40154301
:10516000F603C4F88450D4F8805054BF3D40154332
:10517000C4F88050013332E70025D5E70125D3E795
:105180000225D1E70325CFE70425CDE70525CBE7A9
:105190000625C9E70725C7E70825C5E70000025827
:1051A000004402582DE9F04F0022DFF82881DFF893
:1051B0002891DFF828A1DFF828B131FA02F301D1F4
:1051C000BDE8F08F012303FA02FC1CEA01066BD054
:1051D00022F0030402F003070F253D4B04F1B04415
:1051E000BF00984205FA07F5D4F808E404F5806496
:1051F00005EA0E0E5AD003F58063984258D003F5A5
:105200008063984256D003F58063984254D003F5EA
:105210008063984252D0404552D0484552D05045C4
:1052200052D0584552D003F5A05398420CBF0923E1
:105230000A23BB40734519D14FF0B043D3F88070B7
:1052400027EA0607C3F88070D3F8847027EA0607B8
:10525000C3F884705F6827EA06075F601F6827EA63
:1052600006071F60A36823EA0503A3605500032314
:10527000046802F00707AB400F26BF001C43BE4086
:105280000460D40800EB8404256A25EA060525623B
:10529000C46824EA0304C460446824EA0C0444603B
:1052A000846824EA03038360013286E70023C0E7B1
:1052B0000123BEE70223BCE70323BAE70423B8E7D0
:1052C0000523B6E70623B4E70723B2E70823B0E7D0
:1052D000000002580014025800180258001C02581E
:1052E000002002580369194214BF012000207047B2
:1052F0000AB1816170470904FBE7436901EA0302CF
:1053000021EA030141EA02418161704703689A6919
:10531000910701D500229A629A69D20703D49A694B
:1053200042F001029A61704730B5039DC1F3090153
:1053300004682B43606843EA0243054A0B4342EA90
:10534000555223F0004320EA02000343636030BD5E
:10535000FF63FF032DE9F8430368054688461746B7
:105360009C6914F0100478D0102200264FF0200918
:10537000DA612B689A69900636D40EB1042439E0BC
:10538000B8F1FF3FF6D0FFF701FAC01B404502D845
:10539000B8F1000FEDD12B68596895F84220986953
:1053A000D2B200040AD54C0408D4202A06D05A6888
:1053B00042F480425A60FFF7E9F907462B689C697E
:1053C00014F02004D5D1FFF7E1F9C01B1928F5D955
:1053D0006B6C012685F8404043F020036B6485F830
:1053E000419085F84240E9E7002EC7D120220424ED
:1053F0000126DA612F68BB69D90505D54FF48072A3
:1054000044F001040126FA615A0505D54FF4806283
:1054100044F008040126FA619B0520D54FF400737F
:1054200044F00204FB6128460126FFF76FFF7B680A
:1054300023F0FF7323F48B3323F4FF7323F0010372
:105440007B606B6C23436B64202385F84130002321
:1054500085F8423085F8403003E02646CAE7002E42
:10546000E1D13046BDE8F88370B504460D461646D6
:1054700023689B699B0701D5002070BD32462946F1
:105480002046FFF767FFA0B96A1CF1D0FFF77EF94D
:10549000801BA84201D8002DEAD1636C43F02003A1
:1054A0006364202384F84130002384F8423084F878
:1054B00040300120E1E72DE9F041069F044688468F
:1054C00016461D462268936938EA03030CBF012380
:1054D0000023B34201D0002015E06B1CF3D0FFF78E
:1054E00055F9C01BA84201D8002DEBD1636C0120F7
:1054F00043F020036364202384F84130002384F8C0
:10550000423084F84030BDE8F08100002DE9F341DD
:105510001E46184B054614460093F2B24FF08073B6
:10552000DDE90878FFF700FF284642463946FFF7D5
:105530009BFF18B1012002B0BDE8F081012E2B685D
:105540000DD1E4B20022802128469C623B46CDF872
:105550000080FFF7B0FF003818BF0120EBE7220AF8
:10556000394628469A624246FFF77EFF0028E1D17D
:105570002B68E6E7002000802DE9F3411E46184B1A
:10558000054614460093F2B20023DDE90878FFF7E0
:10559000CBFE284642463946FFF766FF18B1012088
:1055A00002B0BDE8F081012E2B680DD1E4B20022DB
:1055B000402128469C623B46CDF80080FFF77BFFE8
:1055C000003818BF0120EBE7220A394628469A62C4
:1055D0004246FFF749FF0028E1D12B68E6E700BF0C
:1055E0000020008070B504460D46164623689B696E
:1055F0009B0601D5002070BD324629462046FFF7A4
:10560000A9FE90B9FFF7C2F8801BA84201D8002D6F
:10561000ECD1636C43F020036364202384F84130B1
:10562000002384F8423084F840300120E3E77047DB
:1056300010B5044600284AD090F8413003F0FF022C
:105640001BB980F84020FFF7F2FF242384F8413093
:1056500023681A6822F001021A60626822F0706200
:105660001A619A6822F400429A60D4E90221012961
:1056700024D142F400429A605A68002042F000723D
:1056800042F400425A60DA6822F40042DA60D4E957
:1056900004210A43A16942EA0122DA60D4E9072120
:1056A0000A431A601A6842F001021A6020236064FB
:1056B00084F84130206384F8420010BD42F4044273
:1056C00002299A60D8D14FF400625A60D4E70120D1
:1056D000F3E7704710B5044698B10268242380F8B8
:1056E0004130136823F001031360FFF7F2FF00203D
:1056F000606484F8400084F84100206384F842002C
:1057000010BD0120FCE72DE9F04F85B09B46044613
:105710000F46BDF83C309246DDF84090039390F878
:105720004130202B40F0A3800E9B0BB1039B33B97B
:105730004FF400736364012005B0BDE8F08F90F86A
:105740004030012B00F09380012580F84050FFF796
:105750001DF81923009006462A464FF400412046C2
:10576000FFF7A9FE80460028E5D121236063524659
:10577000394684F84130402384F842300E9B6064FF
:1057800020466362039BCDE9009663855B46FFF785
:10579000BDFE10B184F84080CDE7638D9BB2FF2B36
:1057A00055D9FF224FF0807300902285394620465C
:1057B000FFF7BAFD324649462046FFF755FE00285E
:1057C000B9D1636A226813F8011B91626362638D29
:1057D000228D013B013A9BB292B26385638D228593
:1057E0009BB2ABB1A2B94B46802120460096FFF791
:1057F00062FE00289FD1638D9BB2FF2B2FD9FF2221
:105800004FF080730090228539462046FFF78CFDCB
:10581000638D9BB2002BCDD1324649462046FFF71F
:10582000E1FE002887D123682021D9615A6822F03F
:10583000FF7222F48B3222F4FF7222F001025A60CE
:1058400084F8411084F8400084F8420074E7628DC7
:105850004FF00073009092B22285D2B2A6E7628D1B
:105860004FF00073009092B22285D2B2CCE70220B2
:1058700062E700002DE9F04F85B09B4604460F46D5
:10588000BDF83C309246DDF84090039390F84130EB
:10589000202B40F0A7800E9B0BB1039B33B94FF434
:1058A00000736364012005B0BDE8F08F90F84030CC
:1058B000012B00F09780012580F84050FEF766FF2D
:1058C0001923009006462A464FF400412046FFF770
:1058D000F2FD80460028E5D1222360635246394616
:1058E00084F84130402384F842300E9B60642046A7
:1058F0006362039BCDE9009663855B46FFF73CFE40
:1059000010B184F84080CDE7638D9BB2FF2B364BFE
:1059100058D9FF2200934FF08073228539462046E4
:10592000FFF702FD4B460022042120460096FFF7B8
:10593000C2FD0028B6D123685A6A636A1A70636A86
:10594000228D0133013A6362638D92B2013B22855D
:105950009BB26385638D9BB2ABB1A2B94B468021EC
:1059600020460096FFF7A7FD00289BD1638D9BB2D0
:10597000FF2B2FD9FF224FF08073009022853946EC
:105980002046FFF7D1FC638D9BB2002BCAD1324673
:1059900049462046FFF726FE002883D123682021B0
:1059A000D9615A6822F0FF7222F48B3222F4FF721E
:1059B00022F001025A6084F8411084F8400084F813
:1059C000420070E7628D00934FF0007392B222851F
:1059D000D2B2A3E7628D4FF00073009092B222859D
:1059E000D2B2CCE702205EE70024008090F84100AC
:1059F0007047406C704710B590F84130202BDCB2F6
:105A00001DD190F84030012B19D0242380F841306B
:105A100003681A6822F001021A601A6822F48052A0
:105A20001A601A68114319601A6842F001021A607C
:105A3000002380F8414080F84030184610BD022015
:105A4000FCE710B590F84130202BDCB21CD190F867
:105A50004030012B18D0242380F8413003681A68A5
:105A600022F001021A601A6822F4706242EA0121EF
:105A700019601A6842F001021A60002380F8414060
:105A800080F84030184610BD0220FCE7D2010068C3
:105A9000D1F800C0843283182DE9F043C6680CF1B8
:105AA00001075D684FF0000E4C68C6F30B4605F425
:105AB0007045D1F8189026445D60C568C5F30B4564
:105AC0003D4445EA06455D60C668CD68C6F30A06F2
:105AD0002E449D6805F470459D608D68C76801354A
